{
  "address": "0x45f9506110429113Bd3fc5bd3bf3FFdEd01b27CF",
  "abi": [
    {
      "inputs": [
        {
          "internalType": "address",
          "name": "initialOwner",
          "type": "address"
        }
      ],
      "stateMutability": "nonpayable",
      "type": "constructor"
    },
    {
      "inputs": [
        {
          "internalType": "address",
          "name": "sender",
          "type": "address"
        },
        {
          "internalType": "uint256",
          "name": "balance",
          "type": "uint256"
        },
        {
          "internalType": "uint256",
          "name": "needed",
          "type": "uint256"
        },
        {
          "internalType": "uint256",
          "name": "tokenId",
          "type": "uint256"
        }
      ],
      "name": "ERC1155InsufficientBalance",
      "type": "error"
    },
    {
      "inputs": [
        {
          "internalType": "address",
          "name": "approver",
          "type": "address"
        }
      ],
      "name": "ERC1155InvalidApprover",
      "type": "error"
    },
    {
      "inputs": [
        {
          "internalType": "uint256",
          "name": "idsLength",
          "type": "uint256"
        },
        {
          "internalType": "uint256",
          "name": "valuesLength",
          "type": "uint256"
        }
      ],
      "name": "ERC1155InvalidArrayLength",
      "type": "error"
    },
    {
      "inputs": [
        {
          "internalType": "address",
          "name": "operator",
          "type": "address"
        }
      ],
      "name": "ERC1155InvalidOperator",
      "type": "error"
    },
    {
      "inputs": [
        {
          "internalType": "address",
          "name": "receiver",
          "type": "address"
        }
      ],
      "name": "ERC1155InvalidReceiver",
      "type": "error"
    },
    {
      "inputs": [
        {
          "internalType": "address",
          "name": "sender",
          "type": "address"
        }
      ],
      "name": "ERC1155InvalidSender",
      "type": "error"
    },
    {
      "inputs": [
        {
          "internalType": "address",
          "name": "operator",
          "type": "address"
        },
        {
          "internalType": "address",
          "name": "owner",
          "type": "address"
        }
      ],
      "name": "ERC1155MissingApprovalForAll",
      "type": "error"
    },
    {
      "inputs": [
        {
          "internalType": "address",
          "name": "owner",
          "type": "address"
        }
      ],
      "name": "OwnableInvalidOwner",
      "type": "error"
    },
    {
      "inputs": [
        {
          "internalType": "address",
          "name": "account",
          "type": "address"
        }
      ],
      "name": "OwnableUnauthorizedAccount",
      "type": "error"
    },
    {
      "anonymous": false,
      "inputs": [
        {
          "indexed": true,
          "internalType": "address",
          "name": "account",
          "type": "address"
        },
        {
          "indexed": true,
          "internalType": "address",
          "name": "operator",
          "type": "address"
        },
        {
          "indexed": false,
          "internalType": "bool",
          "name": "approved",
          "type": "bool"
        }
      ],
      "name": "ApprovalForAll",
      "type": "event"
    },
    {
      "anonymous": false,
      "inputs": [
        {
          "indexed": true,
          "internalType": "address",
          "name": "previousOwner",
          "type": "address"
        },
        {
          "indexed": true,
          "internalType": "address",
          "name": "newOwner",
          "type": "address"
        }
      ],
      "name": "OwnershipTransferred",
      "type": "event"
    },
    {
      "anonymous": false,
      "inputs": [
        {
          "indexed": true,
          "internalType": "address",
          "name": "operator",
          "type": "address"
        },
        {
          "indexed": true,
          "internalType": "address",
          "name": "from",
          "type": "address"
        },
        {
          "indexed": true,
          "internalType": "address",
          "name": "to",
          "type": "address"
        },
        {
          "indexed": false,
          "internalType": "uint256[]",
          "name": "ids",
          "type": "uint256[]"
        },
        {
          "indexed": false,
          "internalType": "uint256[]",
          "name": "values",
          "type": "uint256[]"
        }
      ],
      "name": "TransferBatch",
      "type": "event"
    },
    {
      "anonymous": false,
      "inputs": [
        {
          "indexed": true,
          "internalType": "address",
          "name": "operator",
          "type": "address"
        },
        {
          "indexed": true,
          "internalType": "address",
          "name": "from",
          "type": "address"
        },
        {
          "indexed": true,
          "internalType": "address",
          "name": "to",
          "type": "address"
        },
        {
          "indexed": false,
          "internalType": "uint256",
          "name": "id",
          "type": "uint256"
        },
        {
          "indexed": false,
          "internalType": "uint256",
          "name": "value",
          "type": "uint256"
        }
      ],
      "name": "TransferSingle",
      "type": "event"
    },
    {
      "anonymous": false,
      "inputs": [
        {
          "indexed": false,
          "internalType": "string",
          "name": "value",
          "type": "string"
        },
        {
          "indexed": true,
          "internalType": "uint256",
          "name": "id",
          "type": "uint256"
        }
      ],
      "name": "URI",
      "type": "event"
    },
    {
      "inputs": [
        {
          "internalType": "address",
          "name": "account",
          "type": "address"
        },
        {
          "internalType": "uint256",
          "name": "id",
          "type": "uint256"
        }
      ],
      "name": "balanceOf",
      "outputs": [
        {
          "internalType": "uint256",
          "name": "",
          "type": "uint256"
        }
      ],
      "stateMutability": "view",
      "type": "function"
    },
    {
      "inputs": [
        {
          "internalType": "address[]",
          "name": "accounts",
          "type": "address[]"
        },
        {
          "internalType": "uint256[]",
          "name": "ids",
          "type": "uint256[]"
        }
      ],
      "name": "balanceOfBatch",
      "outputs": [
        {
          "internalType": "uint256[]",
          "name": "",
          "type": "uint256[]"
        }
      ],
      "stateMutability": "view",
      "type": "function"
    },
    {
      "inputs": [
        {
          "internalType": "address",
          "name": "account",
          "type": "address"
        },
        {
          "internalType": "address",
          "name": "operator",
          "type": "address"
        }
      ],
      "name": "isApprovedForAll",
      "outputs": [
        {
          "internalType": "bool",
          "name": "",
          "type": "bool"
        }
      ],
      "stateMutability": "view",
      "type": "function"
    },
    {
      "inputs": [
        {
          "internalType": "address",
          "name": "account",
          "type": "address"
        },
        {
          "internalType": "uint256",
          "name": "id",
          "type": "uint256"
        },
        {
          "internalType": "uint256",
          "name": "amount",
          "type": "uint256"
        },
        {
          "internalType": "bytes",
          "name": "data",
          "type": "bytes"
        }
      ],
      "name": "mint",
      "outputs": [],
      "stateMutability": "nonpayable",
      "type": "function"
    },
    {
      "inputs": [
        {
          "internalType": "address",
          "name": "to",
          "type": "address"
        },
        {
          "internalType": "uint256[]",
          "name": "ids",
          "type": "uint256[]"
        },
        {
          "internalType": "uint256[]",
          "name": "amounts",
          "type": "uint256[]"
        },
        {
          "internalType": "bytes",
          "name": "data",
          "type": "bytes"
        }
      ],
      "name": "mintBatch",
      "outputs": [],
      "stateMutability": "nonpayable",
      "type": "function"
    },
    {
      "inputs": [],
      "name": "owner",
      "outputs": [
        {
          "internalType": "address",
          "name": "",
          "type": "address"
        }
      ],
      "stateMutability": "view",
      "type": "function"
    },
    {
      "inputs": [],
      "name": "renounceOwnership",
      "outputs": [],
      "stateMutability": "nonpayable",
      "type": "function"
    },
    {
      "inputs": [
        {
          "internalType": "address",
          "name": "from",
          "type": "address"
        },
        {
          "internalType": "address",
          "name": "to",
          "type": "address"
        },
        {
          "internalType": "uint256[]",
          "name": "ids",
          "type": "uint256[]"
        },
        {
          "internalType": "uint256[]",
          "name": "values",
          "type": "uint256[]"
        },
        {
          "internalType": "bytes",
          "name": "data",
          "type": "bytes"
        }
      ],
      "name": "safeBatchTransferFrom",
      "outputs": [],
      "stateMutability": "nonpayable",
      "type": "function"
    },
    {
      "inputs": [
        {
          "internalType": "address",
          "name": "from",
          "type": "address"
        },
        {
          "internalType": "address",
          "name": "to",
          "type": "address"
        },
        {
          "internalType": "uint256",
          "name": "id",
          "type": "uint256"
        },
        {
          "internalType": "uint256",
          "name": "value",
          "type": "uint256"
        },
        {
          "internalType": "bytes",
          "name": "data",
          "type": "bytes"
        }
      ],
      "name": "safeTransferFrom",
      "outputs": [],
      "stateMutability": "nonpayable",
      "type": "function"
    },
    {
      "inputs": [
        {
          "internalType": "address",
          "name": "operator",
          "type": "address"
        },
        {
          "internalType": "bool",
          "name": "approved",
          "type": "bool"
        }
      ],
      "name": "setApprovalForAll",
      "outputs": [],
      "stateMutability": "nonpayable",
      "type": "function"
    },
    {
      "inputs": [
        {
          "internalType": "string",
          "name": "newuri",
          "type": "string"
        }
      ],
      "name": "setURI",
      "outputs": [],
      "stateMutability": "nonpayable",
      "type": "function"
    },
    {
      "inputs": [
        {
          "internalType": "bytes4",
          "name": "interfaceId",
          "type": "bytes4"
        }
      ],
      "name": "supportsInterface",
      "outputs": [
        {
          "internalType": "bool",
          "name": "",
          "type": "bool"
        }
      ],
      "stateMutability": "view",
      "type": "function"
    },
    {
      "inputs": [
        {
          "internalType": "address",
          "name": "newOwner",
          "type": "address"
        }
      ],
      "name": "transferOwnership",
      "outputs": [],
      "stateMutability": "nonpayable",
      "type": "function"
    },
    {
      "inputs": [
        {
          "internalType": "uint256",
          "name": "",
          "type": "uint256"
        }
      ],
      "name": "uri",
      "outputs": [
        {
          "internalType": "string",
          "name": "",
          "type": "string"
        }
      ],
      "stateMutability": "view",
      "type": "function"
    }
  ],
  "transactionHash": "0xeca7fedcd4de4267e1a95504a3e84f7abbca274de2cc287e04fbf06478aa60af",
  "args": [
    "0x4844c339e748fD44825856E5B877a7A9B5BcE559"
  ],
  "numDeployments": 3,
  "solcInputHash": "41943d116c36d0222efcf7d83236269d",
  "bytecode": "0x608060405234801561001057600080fd5b50604051613adc380380613adc83398181016040528101906100329190610b37565b80604051806060016040528060288152602001613ab46028913961005b8161012a60201b60201c565b50600073ffffffffffffffffffffffffffffffffffffffff168173ffffffffffffffffffffffffffffffffffffffff16036100ce5760006040517f1e4fbdf70000000000000000000000000000000000000000000000000000000081526004016100c59190610b73565b60405180910390fd5b6100dd8161013d60201b60201c565b506101023360006103e86040518060200160405280600081525061020360201b60201c565b610124336001806040518060200160405280600081525061020360201b60201c565b5061125c565b80600290816101399190610dde565b5050565b6000600360009054906101000a900473ffffffffffffffffffffffffffffffffffffffff16905081600360006101000a81548173ffffffffffffffffffffffffffffffffffffffff021916908373ffffffffffffffffffffffffffffffffffffffff1602179055508173ffffffffffffffffffffffffffffffffffffffff168173ffffffffffffffffffffffffffffffffffffffff167f8be0079c531659141344cd1fd0a4f28419497f9722a3daafe3b4186f6b6457e060405160405180910390a35050565b600073ffffffffffffffffffffffffffffffffffffffff168473ffffffffffffffffffffffffffffffffffffffff16036102755760006040517f57f447ce00000000000000000000000000000000000000000000000000000000815260040161026c9190610b73565b60405180910390fd5b60008061028885856102a860201b60201c565b915091506102a06000878484876102d860201b60201c565b505050505050565b60608060405191506001825283602083015260408201905060018152826020820152604081016040529250929050565b6102ea858585856103a260201b60201c565b600073ffffffffffffffffffffffffffffffffffffffff168473ffffffffffffffffffffffffffffffffffffffff161461039b57600061032e61075060201b60201c565b9050600184510361038457600061034f60008661075860201b90919060201c565b9050600061036760008661075860201b90919060201c565b905061037d83898985858961076c60201b60201c565b5050610399565b61039881878787878761092060201b60201c565b5b505b5050505050565b80518251146103ec57815181516040517f5b0599910000000000000000000000000000000000000000000000000000000081526004016103e3929190610ebf565b60405180910390fd5b60006103fc61075060201b60201c565b905060005b835181101561060b57600061041f828661075860201b90919060201c565b90506000610436838661075860201b90919060201c565b9050600073ffffffffffffffffffffffffffffffffffffffff168873ffffffffffffffffffffffffffffffffffffffff161461056357600080600084815260200190815260200160002060008a73ffffffffffffffffffffffffffffffffffffffff1673ffffffffffffffffffffffffffffffffffffffff1681526020019081526020016000205490508181101561050b57888183856040517f03dee4c50000000000000000000000000000000000000000000000000000000081526004016105029493929190610ee8565b60405180910390fd5b81810360008085815260200190815260200160002060008b73ffffffffffffffffffffffffffffffffffffffff1673ffffffffffffffffffffffffffffffffffffffff16815260200190815260200160002081905550505b600073ffffffffffffffffffffffffffffffffffffffff168773ffffffffffffffffffffffffffffffffffffffff16146105fe578060008084815260200190815260200160002060008973ffffffffffffffffffffffffffffffffffffffff1673ffffffffffffffffffffffffffffffffffffffff16815260200190815260200160002060008282546105f69190610f5c565b925050819055505b5050806001019050610401565b5060018351036106ca57600061062b60008561075860201b90919060201c565b9050600061064360008561075860201b90919060201c565b90508573ffffffffffffffffffffffffffffffffffffffff168773ffffffffffffffffffffffffffffffffffffffff168473ffffffffffffffffffffffffffffffffffffffff167fc3d58168c5ae7397731d063d5bbf3d657854427343f4c083240f7aacaa2d0f6285856040516106bb929190610ebf565b60405180910390a45050610749565b8373ffffffffffffffffffffffffffffffffffffffff168573ffffffffffffffffffffffffffffffffffffffff168273ffffffffffffffffffffffffffffffffffffffff167f4a39dc06d4c0dbc64b70af90fd698a233a518aa5d07e595d983b8c0526c8f7fb868660405161074092919061104e565b60405180910390a45b5050505050565b600033905090565b600060208202602084010151905092915050565b60008473ffffffffffffffffffffffffffffffffffffffff163b1115610918578373ffffffffffffffffffffffffffffffffffffffff1663f23a6e6187878686866040518663ffffffff1660e01b81526004016107cd959493929190611115565b6020604051808303816000875af192505050801561080957506040513d601f19601f8201168201806040525081019061080691906111c7565b60015b61088d573d8060008114610839576040519150601f19603f3d011682016040523d82523d6000602084013e61083e565b606091505b50600081510361088557846040517f57f447ce00000000000000000000000000000000000000000000000000000000815260040161087c9190610b73565b60405180910390fd5b805181602001fd5b63f23a6e6160e01b7bffffffffffffffffffffffffffffffffffffffffffffffffffffffff1916817bffffffffffffffffffffffffffffffffffffffffffffffffffffffff19161461091657846040517f57f447ce00000000000000000000000000000000000000000000000000000000815260040161090d9190610b73565b60405180910390fd5b505b505050505050565b60008473ffffffffffffffffffffffffffffffffffffffff163b1115610acc578373ffffffffffffffffffffffffffffffffffffffff1663bc197c8187878686866040518663ffffffff1660e01b81526004016109819594939291906111f4565b6020604051808303816000875af19250505080156109bd57506040513d601f19601f820116820180604052508101906109ba91906111c7565b60015b610a41573d80600081146109ed576040519150601f19603f3d011682016040523d82523d6000602084013e6109f2565b606091505b506000815103610a3957846040517f57f447ce000000000000000000000000000000000000000000000000000000008152600401610a309190610b73565b60405180910390fd5b805181602001fd5b63bc197c8160e01b7bffffffffffffffffffffffffffffffffffffffffffffffffffffffff1916817bffffffffffffffffffffffffffffffffffffffffffffffffffffffff191614610aca57846040517f57f447ce000000000000000000000000000000000000000000000000000000008152600401610ac19190610b73565b60405180910390fd5b505b505050505050565b600080fd5b600073ffffffffffffffffffffffffffffffffffffffff82169050919050565b6000610b0482610ad9565b9050919050565b610b1481610af9565b8114610b1f57600080fd5b50565b600081519050610b3181610b0b565b92915050565b600060208284031215610b4d57610b4c610ad4565b5b6000610b5b84828501610b22565b91505092915050565b610b6d81610af9565b82525050565b6000602082019050610b886000830184610b64565b92915050565b600081519050919050565b7f4e487b7100000000000000000000000000000000000000000000000000000000600052604160045260246000fd5b7f4e487b7100000000000000000000000000000000000000000000000000000000600052602260045260246000fd5b60006002820490506001821680610c0f57607f821691505b602082108103610c2257610c21610bc8565b5b50919050565b60008190508160005260206000209050919050565b60006020601f8301049050919050565b600082821b905092915050565b600060088302610c8a7fffffffffffffffffffffffffffffffffffffffffffffffffffffffffffffffff82610c4d565b610c948683610c4d565b95508019841693508086168417925050509392505050565b6000819050919050565b6000819050919050565b6000610cdb610cd6610cd184610cac565b610cb6565b610cac565b9050919050565b6000819050919050565b610cf583610cc0565b610d09610d0182610ce2565b848454610c5a565b825550505050565b600090565b610d1e610d11565b610d29818484610cec565b505050565b5b81811015610d4d57610d42600082610d16565b600181019050610d2f565b5050565b601f821115610d9257610d6381610c28565b610d6c84610c3d565b81016020851015610d7b578190505b610d8f610d8785610c3d565b830182610d2e565b50505b505050565b600082821c905092915050565b6000610db560001984600802610d97565b1980831691505092915050565b6000610dce8383610da4565b9150826002028217905092915050565b610de782610b8e565b67ffffffffffffffff811115610e0057610dff610b99565b5b610e0a8254610bf7565b610e15828285610d51565b600060209050601f831160018114610e485760008415610e36578287015190505b610e408582610dc2565b865550610ea8565b601f198416610e5686610c28565b60005b82811015610e7e57848901518255600182019150602085019450602081019050610e59565b86831015610e9b5784890151610e97601f891682610da4565b8355505b6001600288020188555050505b505050505050565b610eb981610cac565b82525050565b6000604082019050610ed46000830185610eb0565b610ee16020830184610eb0565b9392505050565b6000608082019050610efd6000830187610b64565b610f0a6020830186610eb0565b610f176040830185610eb0565b610f246060830184610eb0565b95945050505050565b7f4e487b7100000000000000000000000000000000000000000000000000000000600052601160045260246000fd5b6000610f6782610cac565b9150610f7283610cac565b9250828201905080821115610f8a57610f89610f2d565b5b92915050565b600081519050919050565b600082825260208201905092915050565b6000819050602082019050919050565b610fc581610cac565b82525050565b6000610fd78383610fbc565b60208301905092915050565b6000602082019050919050565b6000610ffb82610f90565b6110058185610f9b565b935061101083610fac565b8060005b838110156110415781516110288882610fcb565b975061103383610fe3565b925050600181019050611014565b5085935050505092915050565b600060408201905081810360008301526110688185610ff0565b9050818103602083015261107c8184610ff0565b90509392505050565b600081519050919050565b600082825260208201905092915050565b60005b838110156110bf5780820151818401526020810190506110a4565b60008484015250505050565b6000601f19601f8301169050919050565b60006110e782611085565b6110f18185611090565b93506111018185602086016110a1565b61110a816110cb565b840191505092915050565b600060a08201905061112a6000830188610b64565b6111376020830187610b64565b6111446040830186610eb0565b6111516060830185610eb0565b818103608083015261116381846110dc565b90509695505050505050565b60007fffffffff0000000000000000000000000000000000000000000000000000000082169050919050565b6111a48161116f565b81146111af57600080fd5b50565b6000815190506111c18161119b565b92915050565b6000602082840312156111dd576111dc610ad4565b5b60006111eb848285016111b2565b91505092915050565b600060a0820190506112096000830188610b64565b6112166020830187610b64565b81810360408301526112288186610ff0565b9050818103606083015261123c8185610ff0565b9050818103608083015261125081846110dc565b90509695505050505050565b6128498061126b6000396000f3fe608060405234801561001057600080fd5b50600436106100e95760003560e01c8063715018a61161008c578063a22cb46511610066578063a22cb46514610246578063e985e9c514610262578063f242432a14610292578063f2fde38b146102ae576100e9565b8063715018a614610202578063731133e91461020c5780638da5cb5b14610228576100e9565b80630e89341c116100c85780630e89341c1461016a5780631f7fdffa1461019a5780632eb2c2d6146101b65780634e1273f4146101d2576100e9565b8062fdd58e146100ee57806301ffc9a71461011e57806302fe53051461014e575b600080fd5b610108600480360381019061010391906117cf565b6102ca565b604051610115919061181e565b60405180910390f35b61013860048036038101906101339190611891565b610324565b60405161014591906118d9565b60405180910390f35b61016860048036038101906101639190611a3a565b610406565b005b610184600480360381019061017f9190611a83565b61041a565b6040516101919190611b2f565b60405180910390f35b6101b460048036038101906101af9190611cba565b6104ae565b005b6101d060048036038101906101cb9190611d75565b6104c8565b005b6101ec60048036038101906101e79190611f07565b610570565b6040516101f9919061203d565b60405180910390f35b61020a610679565b005b6102266004803603810190610221919061205f565b61068d565b005b6102306106a7565b60405161023d91906120f1565b60405180910390f35b610260600480360381019061025b9190612138565b6106d1565b005b61027c60048036038101906102779190612178565b6106e7565b60405161028991906118d9565b60405180910390f35b6102ac60048036038101906102a791906121b8565b61077b565b005b6102c860048036038101906102c3919061224f565b610823565b005b600080600083815260200190815260200160002060008473ffffffffffffffffffffffffffffffffffffffff1673ffffffffffffffffffffffffffffffffffffffff16815260200190815260200160002054905092915050565b60007fd9b67a26000000000000000000000000000000000000000000000000000000007bffffffffffffffffffffffffffffffffffffffffffffffffffffffff1916827bffffffffffffffffffffffffffffffffffffffffffffffffffffffff191614806103ef57507f0e89341c000000000000000000000000000000000000000000000000000000007bffffffffffffffffffffffffffffffffffffffffffffffffffffffff1916827bffffffffffffffffffffffffffffffffffffffffffffffffffffffff1916145b806103ff57506103fe826108a9565b5b9050919050565b61040e610913565b6104178161099a565b50565b606060028054610429906122ab565b80601f0160208091040260200160405190810160405280929190818152602001828054610455906122ab565b80156104a25780601f10610477576101008083540402835291602001916104a2565b820191906000526020600020905b81548152906001019060200180831161048557829003601f168201915b50505050509050919050565b6104b6610913565b6104c2848484846109ad565b50505050565b60006104d2610a33565b90508073ffffffffffffffffffffffffffffffffffffffff168673ffffffffffffffffffffffffffffffffffffffff1614158015610517575061051586826106e7565b155b1561055b5780866040517fe237d9220000000000000000000000000000000000000000000000000000000081526004016105529291906122dc565b60405180910390fd5b6105688686868686610a3b565b505050505050565b606081518351146105bc57815183516040517f5b0599910000000000000000000000000000000000000000000000000000000081526004016105b3929190612305565b60405180910390fd5b6000835167ffffffffffffffff8111156105d9576105d861190f565b5b6040519080825280602002602001820160405280156106075781602001602082028036833780820191505090505b50905060005b845181101561066e5761064461062c8287610b3390919063ffffffff16565b61063f8387610b4790919063ffffffff16565b6102ca565b8282815181106106575761065661232e565b5b60200260200101818152505080600101905061060d565b508091505092915050565b610681610913565b61068b6000610b5b565b565b610695610913565b6106a184848484610c21565b50505050565b6000600360009054906101000a900473ffffffffffffffffffffffffffffffffffffffff16905090565b6106e36106dc610a33565b8383610cba565b5050565b6000600160008473ffffffffffffffffffffffffffffffffffffffff1673ffffffffffffffffffffffffffffffffffffffff16815260200190815260200160002060008373ffffffffffffffffffffffffffffffffffffffff1673ffffffffffffffffffffffffffffffffffffffff16815260200190815260200160002060009054906101000a900460ff16905092915050565b6000610785610a33565b90508073ffffffffffffffffffffffffffffffffffffffff168673ffffffffffffffffffffffffffffffffffffffff16141580156107ca57506107c886826106e7565b155b1561080e5780866040517fe237d9220000000000000000000000000000000000000000000000000000000081526004016108059291906122dc565b60405180910390fd5b61081b8686868686610e2a565b505050505050565b61082b610913565b600073ffffffffffffffffffffffffffffffffffffffff168173ffffffffffffffffffffffffffffffffffffffff160361089d5760006040517f1e4fbdf700000000000000000000000000000000000000000000000000000000815260040161089491906120f1565b60405180910390fd5b6108a681610b5b565b50565b60007f01ffc9a7000000000000000000000000000000000000000000000000000000007bffffffffffffffffffffffffffffffffffffffffffffffffffffffff1916827bffffffffffffffffffffffffffffffffffffffffffffffffffffffff1916149050919050565b61091b610a33565b73ffffffffffffffffffffffffffffffffffffffff166109396106a7565b73ffffffffffffffffffffffffffffffffffffffff16146109985761095c610a33565b6040517f118cdaa700000000000000000000000000000000000000000000000000000000815260040161098f91906120f1565b60405180910390fd5b565b80600290816109a99190612509565b5050565b600073ffffffffffffffffffffffffffffffffffffffff168473ffffffffffffffffffffffffffffffffffffffff1603610a1f5760006040517f57f447ce000000000000000000000000000000000000000000000000000000008152600401610a1691906120f1565b60405180910390fd5b610a2d600085858585610f35565b50505050565b600033905090565b600073ffffffffffffffffffffffffffffffffffffffff168473ffffffffffffffffffffffffffffffffffffffff1603610aad5760006040517f57f447ce000000000000000000000000000000000000000000000000000000008152600401610aa491906120f1565b60405180910390fd5b600073ffffffffffffffffffffffffffffffffffffffff168573ffffffffffffffffffffffffffffffffffffffff1603610b1f5760006040517f01a83514000000000000000000000000000000000000000000000000000000008152600401610b1691906120f1565b60405180910390fd5b610b2c8585858585610f35565b5050505050565b600060208202602084010151905092915050565b600060208202602084010151905092915050565b6000600360009054906101000a900473ffffffffffffffffffffffffffffffffffffffff16905081600360006101000a81548173ffffffffffffffffffffffffffffffffffffffff021916908373ffffffffffffffffffffffffffffffffffffffff1602179055508173ffffffffffffffffffffffffffffffffffffffff168173ffffffffffffffffffffffffffffffffffffffff167f8be0079c531659141344cd1fd0a4f28419497f9722a3daafe3b4186f6b6457e060405160405180910390a35050565b600073ffffffffffffffffffffffffffffffffffffffff168473ffffffffffffffffffffffffffffffffffffffff1603610c935760006040517f57f447ce000000000000000000000000000000000000000000000000000000008152600401610c8a91906120f1565b60405180910390fd5b600080610ca08585610fe7565b91509150610cb2600087848487610f35565b505050505050565b600073ffffffffffffffffffffffffffffffffffffffff168273ffffffffffffffffffffffffffffffffffffffff1603610d2c5760006040517fced3e100000000000000000000000000000000000000000000000000000000008152600401610d2391906120f1565b60405180910390fd5b80600160008573ffffffffffffffffffffffffffffffffffffffff1673ffffffffffffffffffffffffffffffffffffffff16815260200190815260200160002060008473ffffffffffffffffffffffffffffffffffffffff1673ffffffffffffffffffffffffffffffffffffffff16815260200190815260200160002060006101000a81548160ff0219169083151502179055508173ffffffffffffffffffffffffffffffffffffffff168373ffffffffffffffffffffffffffffffffffffffff167f17307eab39ab6107e8899845ad3d59bd9653f200f220920489ca2b5937696c3183604051610e1d91906118d9565b60405180910390a3505050565b600073ffffffffffffffffffffffffffffffffffffffff168473ffffffffffffffffffffffffffffffffffffffff1603610e9c5760006040517f57f447ce000000000000000000000000000000000000000000000000000000008152600401610e9391906120f1565b60405180910390fd5b600073ffffffffffffffffffffffffffffffffffffffff168573ffffffffffffffffffffffffffffffffffffffff1603610f0e5760006040517f01a83514000000000000000000000000000000000000000000000000000000008152600401610f0591906120f1565b60405180910390fd5b600080610f1b8585610fe7565b91509150610f2c8787848487610f35565b50505050505050565b610f4185858585611017565b600073ffffffffffffffffffffffffffffffffffffffff168473ffffffffffffffffffffffffffffffffffffffff1614610fe0576000610f7f610a33565b90506001845103610fcf576000610fa0600086610b4790919063ffffffff16565b90506000610fb8600086610b4790919063ffffffff16565b9050610fc88389898585896113bf565b5050610fde565b610fdd818787878787611573565b5b505b5050505050565b60608060405191506001825283602083015260408201905060018152826020820152604081016040529250929050565b805182511461106157815181516040517f5b059991000000000000000000000000000000000000000000000000000000008152600401611058929190612305565b60405180910390fd5b600061106b610a33565b905060005b835181101561127a57600061108e8286610b4790919063ffffffff16565b905060006110a58386610b4790919063ffffffff16565b9050600073ffffffffffffffffffffffffffffffffffffffff168873ffffffffffffffffffffffffffffffffffffffff16146111d257600080600084815260200190815260200160002060008a73ffffffffffffffffffffffffffffffffffffffff1673ffffffffffffffffffffffffffffffffffffffff1681526020019081526020016000205490508181101561117a57888183856040517f03dee4c500000000000000000000000000000000000000000000000000000000815260040161117194939291906125db565b60405180910390fd5b81810360008085815260200190815260200160002060008b73ffffffffffffffffffffffffffffffffffffffff1673ffffffffffffffffffffffffffffffffffffffff16815260200190815260200160002081905550505b600073ffffffffffffffffffffffffffffffffffffffff168773ffffffffffffffffffffffffffffffffffffffff161461126d578060008084815260200190815260200160002060008973ffffffffffffffffffffffffffffffffffffffff1673ffffffffffffffffffffffffffffffffffffffff1681526020019081526020016000206000828254611265919061264f565b925050819055505b5050806001019050611070565b50600183510361133957600061129a600085610b4790919063ffffffff16565b905060006112b2600085610b4790919063ffffffff16565b90508573ffffffffffffffffffffffffffffffffffffffff168773ffffffffffffffffffffffffffffffffffffffff168473ffffffffffffffffffffffffffffffffffffffff167fc3d58168c5ae7397731d063d5bbf3d657854427343f4c083240f7aacaa2d0f62858560405161132a929190612305565b60405180910390a450506113b8565b8373ffffffffffffffffffffffffffffffffffffffff168573ffffffffffffffffffffffffffffffffffffffff168273ffffffffffffffffffffffffffffffffffffffff167f4a39dc06d4c0dbc64b70af90fd698a233a518aa5d07e595d983b8c0526c8f7fb86866040516113af929190612683565b60405180910390a45b5050505050565b60008473ffffffffffffffffffffffffffffffffffffffff163b111561156b578373ffffffffffffffffffffffffffffffffffffffff1663f23a6e6187878686866040518663ffffffff1660e01b815260040161142095949392919061270f565b6020604051808303816000875af192505050801561145c57506040513d601f19601f82011682018060405250810190611459919061277e565b60015b6114e0573d806000811461148c576040519150601f19603f3d011682016040523d82523d6000602084013e611491565b606091505b5060008151036114d857846040517f57f447ce0000000000000000000000000000000000000000000000000000000081526004016114cf91906120f1565b60405180910390fd5b805181602001fd5b63f23a6e6160e01b7bffffffffffffffffffffffffffffffffffffffffffffffffffffffff1916817bffffffffffffffffffffffffffffffffffffffffffffffffffffffff19161461156957846040517f57f447ce00000000000000000000000000000000000000000000000000000000815260040161156091906120f1565b60405180910390fd5b505b505050505050565b60008473ffffffffffffffffffffffffffffffffffffffff163b111561171f578373ffffffffffffffffffffffffffffffffffffffff1663bc197c8187878686866040518663ffffffff1660e01b81526004016115d49594939291906127ab565b6020604051808303816000875af192505050801561161057506040513d601f19601f8201168201806040525081019061160d919061277e565b60015b611694573d8060008114611640576040519150601f19603f3d011682016040523d82523d6000602084013e611645565b606091505b50600081510361168c57846040517f57f447ce00000000000000000000000000000000000000000000000000000000815260040161168391906120f1565b60405180910390fd5b805181602001fd5b63bc197c8160e01b7bffffffffffffffffffffffffffffffffffffffffffffffffffffffff1916817bffffffffffffffffffffffffffffffffffffffffffffffffffffffff19161461171d57846040517f57f447ce00000000000000000000000000000000000000000000000000000000815260040161171491906120f1565b60405180910390fd5b505b505050505050565b6000604051905090565b600080fd5b600080fd5b600073ffffffffffffffffffffffffffffffffffffffff82169050919050565b60006117668261173b565b9050919050565b6117768161175b565b811461178157600080fd5b50565b6000813590506117938161176d565b92915050565b6000819050919050565b6117ac81611799565b81146117b757600080fd5b50565b6000813590506117c9816117a3565b92915050565b600080604083850312156117e6576117e5611731565b5b60006117f485828601611784565b9250506020611805858286016117ba565b9150509250929050565b61181881611799565b82525050565b6000602082019050611833600083018461180f565b92915050565b60007fffffffff0000000000000000000000000000000000000000000000000000000082169050919050565b61186e81611839565b811461187957600080fd5b50565b60008135905061188b81611865565b92915050565b6000602082840312156118a7576118a6611731565b5b60006118b58482850161187c565b91505092915050565b60008115159050919050565b6118d3816118be565b82525050565b60006020820190506118ee60008301846118ca565b92915050565b600080fd5b600080fd5b6000601f19601f8301169050919050565b7f4e487b7100000000000000000000000000000000000000000000000000000000600052604160045260246000fd5b611947826118fe565b810181811067ffffffffffffffff821117156119665761196561190f565b5b80604052505050565b6000611979611727565b9050611985828261193e565b919050565b600067ffffffffffffffff8211156119a5576119a461190f565b5b6119ae826118fe565b9050602081019050919050565b82818337600083830152505050565b60006119dd6119d88461198a565b61196f565b9050828152602081018484840111156119f9576119f86118f9565b5b611a048482856119bb565b509392505050565b600082601f830112611a2157611a206118f4565b5b8135611a318482602086016119ca565b91505092915050565b600060208284031215611a5057611a4f611731565b5b600082013567ffffffffffffffff811115611a6e57611a6d611736565b5b611a7a84828501611a0c565b91505092915050565b600060208284031215611a9957611a98611731565b5b6000611aa7848285016117ba565b91505092915050565b600081519050919050565b600082825260208201905092915050565b60005b83811015611aea578082015181840152602081019050611acf565b60008484015250505050565b6000611b0182611ab0565b611b0b8185611abb565b9350611b1b818560208601611acc565b611b24816118fe565b840191505092915050565b60006020820190508181036000830152611b498184611af6565b905092915050565b600067ffffffffffffffff821115611b6c57611b6b61190f565b5b602082029050602081019050919050565b600080fd5b6000611b95611b9084611b51565b61196f565b90508083825260208201905060208402830185811115611bb857611bb7611b7d565b5b835b81811015611be15780611bcd88826117ba565b845260208401935050602081019050611bba565b5050509392505050565b600082601f830112611c0057611bff6118f4565b5b8135611c10848260208601611b82565b91505092915050565b600067ffffffffffffffff821115611c3457611c3361190f565b5b611c3d826118fe565b9050602081019050919050565b6000611c5d611c5884611c19565b61196f565b905082815260208101848484011115611c7957611c786118f9565b5b611c848482856119bb565b509392505050565b600082601f830112611ca157611ca06118f4565b5b8135611cb1848260208601611c4a565b91505092915050565b60008060008060808587031215611cd457611cd3611731565b5b6000611ce287828801611784565b945050602085013567ffffffffffffffff811115611d0357611d02611736565b5b611d0f87828801611beb565b935050604085013567ffffffffffffffff811115611d3057611d2f611736565b5b611d3c87828801611beb565b925050606085013567ffffffffffffffff811115611d5d57611d5c611736565b5b611d6987828801611c8c565b91505092959194509250565b600080600080600060a08688031215611d9157611d90611731565b5b6000611d9f88828901611784565b9550506020611db088828901611784565b945050604086013567ffffffffffffffff811115611dd157611dd0611736565b5b611ddd88828901611beb565b935050606086013567ffffffffffffffff811115611dfe57611dfd611736565b5b611e0a88828901611beb565b925050608086013567ffffffffffffffff811115611e2b57611e2a611736565b5b611e3788828901611c8c565b9150509295509295909350565b600067ffffffffffffffff821115611e5f57611e5e61190f565b5b602082029050602081019050919050565b6000611e83611e7e84611e44565b61196f565b90508083825260208201905060208402830185811115611ea657611ea5611b7d565b5b835b81811015611ecf5780611ebb8882611784565b845260208401935050602081019050611ea8565b5050509392505050565b600082601f830112611eee57611eed6118f4565b5b8135611efe848260208601611e70565b91505092915050565b60008060408385031215611f1e57611f1d611731565b5b600083013567ffffffffffffffff811115611f3c57611f3b611736565b5b611f4885828601611ed9565b925050602083013567ffffffffffffffff811115611f6957611f68611736565b5b611f7585828601611beb565b9150509250929050565b600081519050919050565b600082825260208201905092915050565b6000819050602082019050919050565b611fb481611799565b82525050565b6000611fc68383611fab565b60208301905092915050565b6000602082019050919050565b6000611fea82611f7f565b611ff48185611f8a565b9350611fff83611f9b565b8060005b838110156120305781516120178882611fba565b975061202283611fd2565b925050600181019050612003565b5085935050505092915050565b600060208201905081810360008301526120578184611fdf565b905092915050565b6000806000806080858703121561207957612078611731565b5b600061208787828801611784565b9450506020612098878288016117ba565b93505060406120a9878288016117ba565b925050606085013567ffffffffffffffff8111156120ca576120c9611736565b5b6120d687828801611c8c565b91505092959194509250565b6120eb8161175b565b82525050565b600060208201905061210660008301846120e2565b92915050565b612115816118be565b811461212057600080fd5b50565b6000813590506121328161210c565b92915050565b6000806040838503121561214f5761214e611731565b5b600061215d85828601611784565b925050602061216e85828601612123565b9150509250929050565b6000806040838503121561218f5761218e611731565b5b600061219d85828601611784565b92505060206121ae85828601611784565b9150509250929050565b600080600080600060a086880312156121d4576121d3611731565b5b60006121e288828901611784565b95505060206121f388828901611784565b9450506040612204888289016117ba565b9350506060612215888289016117ba565b925050608086013567ffffffffffffffff81111561223657612235611736565b5b61224288828901611c8c565b9150509295509295909350565b60006020828403121561226557612264611731565b5b600061227384828501611784565b91505092915050565b7f4e487b7100000000000000000000000000000000000000000000000000000000600052602260045260246000fd5b600060028204905060018216806122c357607f821691505b6020821081036122d6576122d561227c565b5b50919050565b60006040820190506122f160008301856120e2565b6122fe60208301846120e2565b9392505050565b600060408201905061231a600083018561180f565b612327602083018461180f565b9392505050565b7f4e487b7100000000000000000000000000000000000000000000000000000000600052603260045260246000fd5b60008190508160005260206000209050919050565b60006020601f8301049050919050565b600082821b905092915050565b6000600883026123bf7fffffffffffffffffffffffffffffffffffffffffffffffffffffffffffffffff82612382565b6123c98683612382565b95508019841693508086168417925050509392505050565b6000819050919050565b60006124066124016123fc84611799565b6123e1565b611799565b9050919050565b6000819050919050565b612420836123eb565b61243461242c8261240d565b84845461238f565b825550505050565b600090565b61244961243c565b612454818484612417565b505050565b5b818110156124785761246d600082612441565b60018101905061245a565b5050565b601f8211156124bd5761248e8161235d565b61249784612372565b810160208510156124a6578190505b6124ba6124b285612372565b830182612459565b50505b505050565b600082821c905092915050565b60006124e0600019846008026124c2565b1980831691505092915050565b60006124f983836124cf565b9150826002028217905092915050565b61251282611ab0565b67ffffffffffffffff81111561252b5761252a61190f565b5b61253582546122ab565b61254082828561247c565b600060209050601f8311600181146125735760008415612561578287015190505b61256b85826124ed565b8655506125d3565b601f1984166125818661235d565b60005b828110156125a957848901518255600182019150602085019450602081019050612584565b868310156125c657848901516125c2601f8916826124cf565b8355505b6001600288020188555050505b505050505050565b60006080820190506125f060008301876120e2565b6125fd602083018661180f565b61260a604083018561180f565b612617606083018461180f565b95945050505050565b7f4e487b7100000000000000000000000000000000000000000000000000000000600052601160045260246000fd5b600061265a82611799565b915061266583611799565b925082820190508082111561267d5761267c612620565b5b92915050565b6000604082019050818103600083015261269d8185611fdf565b905081810360208301526126b18184611fdf565b90509392505050565b600081519050919050565b600082825260208201905092915050565b60006126e1826126ba565b6126eb81856126c5565b93506126fb818560208601611acc565b612704816118fe565b840191505092915050565b600060a08201905061272460008301886120e2565b61273160208301876120e2565b61273e604083018661180f565b61274b606083018561180f565b818103608083015261275d81846126d6565b90509695505050505050565b60008151905061277881611865565b92915050565b60006020828403121561279457612793611731565b5b60006127a284828501612769565b91505092915050565b600060a0820190506127c060008301886120e2565b6127cd60208301876120e2565b81810360408301526127df8186611fdf565b905081810360608301526127f38185611fdf565b9050818103608083015261280781846126d6565b9050969550505050505056fea2646970667358221220270d67a301ecaf307d4e6508dd7e20858b664a019cef6fdf8717e81ad366f9d964736f6c634300081c003368747470733a2f2f67616d65322e6578616d706c652f6170692f6974656d2f7b69647d2e6a736f6e",
  "devdoc": {
    "errors": {
      "ERC1155InsufficientBalance(address,uint256,uint256,uint256)": [
        {
          "details": "Indicates an error related to the current `balance` of a `sender`. Used in transfers.",
          "params": {
            "balance": "Current balance for the interacting account.",
            "needed": "Minimum amount required to perform a transfer.",
            "sender": "Address whose tokens are being transferred.",
            "tokenId": "Identifier number of a token."
          }
        }
      ],
      "ERC1155InvalidApprover(address)": [
        {
          "details": "Indicates a failure with the `approver` of a token to be approved. Used in approvals.",
          "params": {
            "approver": "Address initiating an approval operation."
          }
        }
      ],
      "ERC1155InvalidArrayLength(uint256,uint256)": [
        {
          "details": "Indicates an array length mismatch between ids and values in a safeBatchTransferFrom operation. Used in batch transfers.",
          "params": {
            "idsLength": "Length of the array of token identifiers",
            "valuesLength": "Length of the array of token amounts"
          }
        }
      ],
      "ERC1155InvalidOperator(address)": [
        {
          "details": "Indicates a failure with the `operator` to be approved. Used in approvals.",
          "params": {
            "operator": "Address that may be allowed to operate on tokens without being their owner."
          }
        }
      ],
      "ERC1155InvalidReceiver(address)": [
        {
          "details": "Indicates a failure with the token `receiver`. Used in transfers.",
          "params": {
            "receiver": "Address to which tokens are being transferred."
          }
        }
      ],
      "ERC1155InvalidSender(address)": [
        {
          "details": "Indicates a failure with the token `sender`. Used in transfers.",
          "params": {
            "sender": "Address whose tokens are being transferred."
          }
        }
      ],
      "ERC1155MissingApprovalForAll(address,address)": [
        {
          "details": "Indicates a failure with the `operator`s approval. Used in transfers.",
          "params": {
            "operator": "Address that may be allowed to operate on tokens without being their owner.",
            "owner": "Address of the current owner of a token."
          }
        }
      ],
      "OwnableInvalidOwner(address)": [
        {
          "details": "The owner is not a valid owner account. (eg. `address(0)`)"
        }
      ],
      "OwnableUnauthorizedAccount(address)": [
        {
          "details": "The caller account is not authorized to perform an operation."
        }
      ]
    },
    "events": {
      "ApprovalForAll(address,address,bool)": {
        "details": "Emitted when `account` grants or revokes permission to `operator` to transfer their tokens, according to `approved`."
      },
      "TransferBatch(address,address,address,uint256[],uint256[])": {
        "details": "Equivalent to multiple {TransferSingle} events, where `operator`, `from` and `to` are the same for all transfers."
      },
      "TransferSingle(address,address,address,uint256,uint256)": {
        "details": "Emitted when `value` amount of tokens of type `id` are transferred from `from` to `to` by `operator`."
      },
      "URI(string,uint256)": {
        "details": "Emitted when the URI for token type `id` changes to `value`, if it is a non-programmatic URI. If an {URI} event was emitted for `id`, the standard https://eips.ethereum.org/EIPS/eip-1155#metadata-extensions[guarantees] that `value` will equal the value returned by {IERC1155MetadataURI-uri}."
      }
    },
    "kind": "dev",
    "methods": {
      "balanceOf(address,uint256)": {
        "details": "See {IERC1155-balanceOf}."
      },
      "balanceOfBatch(address[],uint256[])": {
        "details": "See {IERC1155-balanceOfBatch}. Requirements: - `accounts` and `ids` must have the same length."
      },
      "isApprovedForAll(address,address)": {
        "details": "See {IERC1155-isApprovedForAll}."
      },
      "owner()": {
        "details": "Returns the address of the current owner."
      },
      "renounceOwnership()": {
        "details": "Leaves the contract without owner. It will not be possible to call `onlyOwner` functions. Can only be called by the current owner. NOTE: Renouncing ownership will leave the contract without an owner, thereby disabling any functionality that is only available to the owner."
      },
      "safeBatchTransferFrom(address,address,uint256[],uint256[],bytes)": {
        "details": "See {IERC1155-safeBatchTransferFrom}."
      },
      "safeTransferFrom(address,address,uint256,uint256,bytes)": {
        "details": "See {IERC1155-safeTransferFrom}."
      },
      "setApprovalForAll(address,bool)": {
        "details": "See {IERC1155-setApprovalForAll}."
      },
      "supportsInterface(bytes4)": {
        "details": "See {IERC165-supportsInterface}."
      },
      "transferOwnership(address)": {
        "details": "Transfers ownership of the contract to a new account (`newOwner`). Can only be called by the current owner."
      },
      "uri(uint256)": {
        "details": "See {IERC1155MetadataURI-uri}. This implementation returns the same URI for *all* token types. It relies on the token type ID substitution mechanism https://eips.ethereum.org/EIPS/eip-1155#metadata[defined in the ERC]. Clients calling this function must replace the `\\{id\\}` substring with the actual token type ID."
      }
    },
    "version": 1
  },
  "userdoc": {
    "kind": "user",
    "methods": {},
    "version": 1
  },
  "storageLayout": {
    "storage": [
      {
        "astId": 358,
        "contract": "contracts/tokens/BaseERC1155.sol:BaseERC1155",
        "label": "_balances",
        "offset": 0,
        "slot": "0",
        "type": "t_mapping(t_uint256,t_mapping(t_address,t_uint256))"
      },
      {
        "astId": 364,
        "contract": "contracts/tokens/BaseERC1155.sol:BaseERC1155",
        "label": "_operatorApprovals",
        "offset": 0,
        "slot": "1",
        "type": "t_mapping(t_address,t_mapping(t_address,t_bool))"
      },
      {
        "astId": 366,
        "contract": "contracts/tokens/BaseERC1155.sol:BaseERC1155",
        "label": "_uri",
        "offset": 0,
        "slot": "2",
        "type": "t_string_storage"
      },
      {
        "astId": 8,
        "contract": "contracts/tokens/BaseERC1155.sol:BaseERC1155",
        "label": "_owner",
        "offset": 0,
        "slot": "3",
        "type": "t_address"
      }
    ],
    "types": {
      "t_address": {
        "encoding": "inplace",
        "label": "address",
        "numberOfBytes": "20"
      },
      "t_bool": {
        "encoding": "inplace",
        "label": "bool",
        "numberOfBytes": "1"
      },
      "t_mapping(t_address,t_bool)": {
        "encoding": "mapping",
        "key": "t_address",
        "label": "mapping(address => bool)",
        "numberOfBytes": "32",
        "value": "t_bool"
      },
      "t_mapping(t_address,t_mapping(t_address,t_bool))": {
        "encoding": "mapping",
        "key": "t_address",
        "label": "mapping(address => mapping(address => bool))",
        "numberOfBytes": "32",
        "value": "t_mapping(t_address,t_bool)"
      },
      "t_mapping(t_address,t_uint256)": {
        "encoding": "mapping",
        "key": "t_address",
        "label": "mapping(address => uint256)",
        "numberOfBytes": "32",
        "value": "t_uint256"
      },
      "t_mapping(t_uint256,t_mapping(t_address,t_uint256))": {
        "encoding": "mapping",
        "key": "t_uint256",
        "label": "mapping(uint256 => mapping(address => uint256))",
        "numberOfBytes": "32",
        "value": "t_mapping(t_address,t_uint256)"
      },
      "t_string_storage": {
        "encoding": "bytes",
        "label": "string",
        "numberOfBytes": "32"
      },
      "t_uint256": {
        "encoding": "inplace",
        "label": "uint256",
        "numberOfBytes": "32"
      }
    }
  }
}